:100000000C9466000C947E020C9457020C948300AE
:100010000C9483000C9483000C9483000C94830054
:100020000C9483000C9483000C9483000C94830044
:100030000C9483000C9483000C9483000C94830034
:100040000C940D020C9483000C9483000C94830098
:100050000C9483000C9483000C9483000C94830014
:100060000C9483000C948300000000002300260001
:10007000290000000000240027002A0000000000E2
:10008000250028002B0004040404040404040202D4
:100090000202020203030303030302020301020438
:1000A00008102040800102040810200102040810FA
:1000B0002040804000000009000302000004050801
:1000C00000000000000000000000000011241FBE1E
:1000D000CFEFD4E0DEBFCDBF11E0A0E0B1E0E2E2BF
:1000E000F8E002C005900D92A638B107D9F721E0DB
:1000F000A6E8B1E001C01D92A93AB207E1F70E945B
:10010000A5020C940F040C940000843081F028F4B4
:100110008230E9F08330F9F00895883071F0893049
:1001200091F08530B9F4809180008F7D03C080917B
:1001300080008F778093800008958091B0008F7742
:100140008093B00008958091B0008F7DF9CF84B581
:100150008F7784BD089584B58F7DFBCF1F93CF9398
:10016000DF93282F30E0F901EC54FF4F8491F9011F
:10017000E356FF4FD491F901EA57FF4FC491CC23C6
:10018000A9F0162F81110E948500EC2FF0E0EE0FF0
:10019000FF1FE458FF4FA591B4918FB7F894EC91ED
:1001A000111108C0D095DE23DC938FBFDF91CF9172
:1001B0001F910895DE2BF8CFCF93DF9390E0FC01E1
:1001C000E356FF4F24918A579F4FFC018491882367
:1001D000D1F090E0880F991FFC01EE58FF4FA591D8
:1001E000B491FC01E458FF4FC591D491623071F491
:1001F0009FB7F8943C91822F809583238C93E8815C
:100200002E2B28839FBFDF91CF9108958FB7F8944D
:10021000EC912E2B2C938FBFF6CF0895CF92DF92C7
:10022000EF92FF920F931F93CF93DF93209196014C
:1002300030E0F901EC54FF4F8491F901E356FF4F90
:10024000D491F901EA57FF4FC491CC2379F0811181
:100250000E948500EC2FF0E0EE0FFF1FE859FF4FE2
:10026000A591B491EC91ED2391E009F490E08FB762
:10027000F894409192015091930160919401709192
:1002800095018FBF0091890110918A0120918B0106
:1002900030918C016A017B01C01AD10AE20AF30A8B
:1002A000970186010B3F11052105310510F01092D1
:1002B00088014093890150938A0160938B01709368
:1002C0008C01809188018F5F809388018A3038F497
:1002D000823070F58130F9F01092880120C08A30A8
:1002E000C1F18B30C9F7809186018D3FA8F78091CD
:1002F000A7018F5F803108F080E09091A8019817E6
:1003000059F3E82FF0E090918701E956FE4F908372
:100310008093A701E1CF1092870110928601DF91AF
:10032000CF911F910F91FF90EF90DF90CF900895A4
:1003300080918601890F809386012091870130E0AA
:100340003595279580E0911180E8282B209387012F
:10035000E6CF809186018170981719F0809386010D
:10036000DECF8DEFFBCFCF93C82F61E08FE00E94EF
:10037000AE0061E081E10E94AE006C2F80E10E943E
:10038000AE0060E081E10E94AE0060E08FE0CF91BE
:100390000C94AE00CF93DF93C82F682F617084E078
:1003A0000E94AE00D0E0BE0175956795617085E052
:1003B0000E94AE00BE017595679575956795617051
:1003C00086E00E94AE00BE0123E0759567952A95F0
:1003D000E1F7617087E00E94AE00BE0134E07595E0
:1003E00067953A95E1F7617088E00E94AE00BE0122
:1003F00045E0759567954A95E1F7617089E00E943F
:10040000AE0056E0D595C7955A95E1F76C2F61700F
:100410008AE0DF91CF910C94AE001F920F920FB63D
:100420000F9211242F933F938F939F93AF93BF937A
:100430008091920190919301A0919401B0919501C6
:100440003091910126E0230F2D3768F129E8230F21
:100450000396A11DB11D2093910180939201909369
:100460009301A0939401B093950180918D01909197
:100470008E01A0918F01B09190010196A11DB11D37
:1004800080938D0190938E01A0938F01B093900182
:10049000BF91AF919F918F913F912F910F900FBE80
:1004A0000F901F9018950296A11DB11DD4CF1F92D9
:1004B0000F920FB60F9211242F933F934F935F9398
:1004C0006F937F938F939F93AF93BF93EF93FF931C
:1004D000E0910201F09103010995FF91EF91BF9125
:1004E000AF919F918F917F916F915F914F913F91CC
:1004F0002F910F900FBE0F901F9018951F920F9283
:100500000FB60F9211242F933F934F935F936F93E6
:100510007F938F939F93AF93BF93EF93FF93E0915C
:100520000001F09101010995FF91EF91BF91AF9109
:100530009F918F917F916F915F914F913F912F91FB
:100540000F900FBE0F901F901895789484B583601C
:1005500084BD85B5836085BD80916E008160809388
:100560006E00C2E0C0938100809181008160809321
:100570008100809180008160809380008091B10033
:1005800084608093B1008091B00081608093B0005E
:1005900086E880937A001092C10061E084E00E94B6
:1005A000DC0061E085E00E94DC0061E086E00E9402
:1005B000DC0061E087E00E94DC0061E088E00E94EE
:1005C000DC0061E089E00E94DC0061E08AE00E94DA
:1005D000DC0061E08EE00E94DC0061E08FE00E94C0
:1005E000DC0061E080E10E94DC0061E081E10E94CA
:1005F000DC00C093960162E083E00E94DC0062E0D0
:1006000082E00E94DC001092A7011092A8018EE007
:1006100091E0909303018093020180916900837FB0
:10062000886080936900E99A80E00E94CA0160E0D6
:100630008EE00E94AE0060E08FE00E94AE0060E0BD
:1006400080E10E94AE0060E081E10E94AE0061E0C6
:100650008FE00E94AE0061E08EE00E94AE0060E09C
:100660008EE00E94AE0060E08FE00E94AE0080E06D
:100670000E94CA0180E00E94B30100E010E0C1E0E6
:100680008091A7019091A801891B87FD805F882335
:1006900009F46EC08091A7019091A801891B87FD84
:1006A000805F882391F0E091A8018091A701E8176D
:1006B00061F0EF5FE03108F0E0E0E093A801F0E0E6
:1006C000E956FE4FE081E11106C0EFEFF0E0EB5F8D
:1006D000FE4F80815CC0E63609F451C018F5E9345C
:1006E00009F48BC070F4ED3009F47EC0E13471F789
:1006F00081E70E94CA01809104010E94B30183E74F
:1007000046C0E23509F482C0E83509F464C0EC342F
:10071000E9F681E70E94CA01809104010E94B301B9
:1007200081E535C0E53709F444C080F4E237C1F112
:10073000E43709F447C0EB3649F680E00E94CA016D
:10074000809104010E94B30184E321C0E03E81F066
:10075000E03F61F0E63709F0B9CF80E00E94CA01BE
:10076000809104010E94B30180E311C01092040142
:100770000115110509F484CF0E94000081CF80E0AB
:100780000E94CA01809104010E94B30180E40E948A
:10079000CA01809104010E94B301C0930401E8CF13
:1007A00080E00E94CA01809104010E94B30184E4A8
:1007B000EECF80E00E94CA01809104010E94B30143
:1007C00083E4E5CF80E00E94CA01809104010E9489
:1007D000B30182E4DCCF80E00E94CA018091040171
:1007E0000E94B30181E3D3CF80E00E94CA018091CF
:1007F00004010E94B30181E7CACF81E70E94CA01C8
:10080000809104010E94B30182E7C1CF81E70E9479
:10081000CA01809104010E94B30180E5B8CFF89429
:02082000FFCF08
:100822000D010000017F7F7F7F7F7F7F7F7F7F7F42
:100832007F7F7F7F7F7F7F007F7F20307F7F7F0171
:10084200111021317F7F0302122233327F7F700425
:10085200132423347F7F7374641454447F7F7F7224
:10086200635343427F7F7F62525140417F7F7F7F4C
:10087200617F507F7F7F7F7F7F7F7F7F7F7F716000
:100882007F7F7F7F7F7F7F7F7F7F7F407F7F7F7FB5
:10089200347F7F7F7F7F7F7F7F7F7F7F7F7F7F7FB1
:0608A2007F7F7F7F7F00D5
:00000001FF
